:100000000C9462000C948A000C948A000C948A0070
:100010000C948A000C948A000C948A000C948A0038
:100020000C948A000C948A000C948A000C948A0028
:100030000C948A000C948A000C948A000C948A0018
:100040000C94C6050C948A000C9494050C946E05CF
:100050000C948A000C948A000C948A000C948A00F8
:100060000C948A000C948A000000000024002700F1
:100070002A0000000000250028002B0000000000DE
:1000800023002600290004040404040404040202DA
:100090000202020203030303030301020408102007
:1000A0004080010204081020010204081020000012
:1000B0000008000201000003040700000000000027
:1000C0000000100611241FBECFEFD8E0DEBFCDBF69
:1000D00011E0A0E0B1E0E6EBF5E102C005900D9281
:1000E000A034B107D9F722E0A0E4B1E001C01D922D
:1000F000A730B207E1F710E0C2E6D0E004C02197D4
:10010000FE010E949208C136D107C9F70E945B0622
:100110000C94D90A0C940000CF92DF92EF92FF92D8
:100120000F931F93CF93DF936C017A018B01C0E093
:10013000D0E0CE15DF0589F0D8016D918D01D60193
:10014000ED91FC910190F081E02DC6010995892B7C
:1001500011F47E0102C02196ECCFC701DF91CF914F
:100160001F910F91FF90EF90DF90CF900895FC01C9
:10017000918D828D981761F0828DDF01A80FB11DDE
:100180005D968C91928D9F5F9F73928F90E0089502
:100190008FEF9FEF0895FC01918D828D981731F0BC
:1001A000828DE80FF11D858D90E008958FEF9FEF10
:1001B0000895FC01918D228D892F90E0805C9F4FE6
:1001C000821B91098F739927089582E591E00E941F
:1001D000D90021E0892B09F420E0822F0895FC0149
:1001E000848DDF01A80FB11DA35ABF4F2C91848DC0
:1001F00090E001968F739927848FA689B7892C93F5
:10020000A089B1898C9180648C93938D848D98138F
:1002100006C00288F389E02D80818F7D8083089558
:10022000EF92FF920F931F93CF93DF93EC0181E046
:10023000888F9B8D8C8D981305C0E889F989808102
:1002400085FD24C0F62E0B8D10E00F5F1F4F0F733E
:100250001127E02E8C8DE8120CC00FB607FCFACFE8
:10026000E889F989808185FFF5CFCE010E94EF00F2
:10027000F1CF8B8DFE01E80FF11DE35AFF4FF082A5
:100280000B8FEA89FB898081806207C0EE89FF8934
:100290006083E889F98980818064808381E090E0CF
:1002A000DF91CF911F910F91FF90EF900895CF9321
:1002B000DF93EC01888D8823C9F0EA89FB8980816E
:1002C00085FD05C0A889B9898C9186FD0FC00FB640
:1002D00007FCF5CF808185FFF2CFA889B9898C9181
:1002E00085FFEDCFCE010E94EF00E7CFDF91CF91E8
:1002F000089580E090E0892B29F00E94E5008111AB
:100300000C9400000895833081F028F4813099F036
:100310008230A1F008958730A9F08830B9F0843098
:10032000D1F4809180008F7D03C0809180008F7711
:1003300080938000089584B58F7702C084B58F7D47
:1003400084BD08958091B0008F7703C08091B00084
:100350008F7D8093B0000895CF93DF93E6EBF0E0BC
:100360008491E2EAF0E0D491EEE8F0E0C491CC238D
:1003700091F081110E948301EC2FF0E0EE0FFF1F3E
:10038000E458FF4FA591B491EC91ED2381E090E00A
:1003900021F480E002C080E090E0DF91CF910895E9
:1003A0001F93CF93DF93282F30E0F901E255FF4FE1
:1003B0008491F901E656FF4FD491F901EA57FF4FB6
:1003C000C491CC23C9F0162F81110E948301EC2F18
:1003D000F0E0EE0FFF1FEE58FF4FA591B4918FB7DD
:1003E000F894111105C09C91ED2FE095E92302C00E
:1003F000EC91ED2BEC938FBFDF91CF911F9108957E
:10040000CF93DF9390E0FC01E656FF4F2491FC016F
:10041000EA57FF4F8491882361F190E0880F991F7C
:10042000FC01E859FF4FC591D491FC01EE58FF4FF4
:10043000A591B491611109C09FB7F8948881209566
:1004400082238883EC912E230BC0623061F49FB726
:10045000F8943881822F809583238883EC912E2B0A
:100460002C939FBF06C08FB7F894E8812E2B28836A
:100470008FBFDF91CF9108953FB7F89480914501E8
:1004800090914601A0914701B091480126B5A89BE3
:1004900005C02F3F19F00196A11DB11D3FBFBA2F16
:1004A000A92F982F8827820F911DA11DB11DBC0176
:1004B000CD0143E0660F771F881F991F4A95D1F73A
:1004C00008958F929F92AF92BF92CF92DF92EF9258
:1004D000FF926B017C010E943C024B015C01C11444
:1004E000D104E104F104F1F00E943C02DC01CB01F3
:1004F00088199909AA09BB09883E9340A105B1054D
:1005000070F321E0C21AD108E108F10888EE880EE4
:1005100083E0981EA11CB11CC114D104E104F104B4
:1005200019F7DDCFFF90EF90DF90CF90BF90AF90A5
:100530009F908F9008950F931F9392EF980F8E3096
:1005400008F0892F8770982F9064E0E0F1E000E0D8
:1005500010E0980190937C0080917A0080648093F1
:100560007A0080917A0086FDFCCF409178008091DE
:10057000790050E0582B052E000C660B770B040F0A
:10058000151F261F371F319729F7BB27A32F922F3F
:10059000812F1F910F9108950E94D40ACF93DF936A
:1005A000EC0160E08E810E94D00161E08E810E94AA
:1005B000D00160E08E810E94D00184EC90E0019730
:1005C000F1F7DF91CF910895CF92DF92EF92FF92F2
:1005D0000F931F93CF93DF937C016C0187E0C80ECC
:1005E000D11CC0E0D0E0062F10E0B8010C2E02C0F4
:1005F000759567950A94E2F76170F60181916F0134
:100600000E94D0012196C430D10579F7C701DF914E
:10061000CF911F910F91FF90EF90DF90CF900C94AE
:10062000CE02CF92DF92EF92FF920F931F93CF9360
:10063000DF93EC01F62E642F8C810E94D0018D8116
:100640008F3F19F060E00E94D0018F850F2D10E0E0
:1006500084FF25C06E0187E0C80ED11CE12CF12C6F
:10066000B8010E2C02C0759567950A94E2F7617087
:10067000F60181916F010E94D001FFEFEF1AFF0A8E
:1006800088E0E816F10461F7CE01DF91CF911F9168
:100690000F91FF90EF90DF90CF900C94CE02B801B5
:1006A00084E0759567958A95E1F7CE010E94E40292
:1006B0006F2DCE01DF91CF911F910F91FF90EF90A1
:1006C000DF90CF900C94E40241E00E94110381E09E
:1006D00090E0089540E00C941103EF92FF920F9385
:1006E0001F93CF93DF93EC01623018F08F85886001
:1006F0008F876B8B1C8A80E48D8B80E18E8B80E5ED
:100700008F8B61E08C810E9400028D818F3F19F0F8
:1007100061E00E94000261E08E810E9400027E0181
:1007200087E0E80EF11C00E010E08F8584FD03C037
:1007300084E090E002C088E090E0081719074CF4CC
:1007400061E0F70181917F010E9400020F5F1F4F5E
:10075000ECCF8CE996E80197F1F760E08C810E947C
:10076000D00160E08E810E94D0018D818F3F19F011
:1007700060E00E94D0016F8564FD1DC063E0CE0182
:100780000E94E40204E213E2C8010197F1F763E07A
:10079000CE010E94E402C8010197F1F763E0CE01A7
:1007A0000E94E40288E291E00197F1F762E0CE0155
:1007B0000E94E40216C06062CE010E946A0384E2D5
:1007C00093E20197F1F76F856062CE010E946A03A0
:1007D00088E291E00197F1F76F856062CE010E9497
:1007E0006A036F856062CE010E946A0384E0888B91
:1007F0006CE0CE010E946A0361E0CE010E946A03B0
:100800008CE99FE00197F1F782E0898B66E0CE01E9
:10081000DF91CF911F910F91FF90EF900C946A039D
:10082000643008F063E090910202691710F06FEFF6
:10083000690FE62FF0E0E151FE4F9489682F690FB0
:1008400060688FEE91E00C946A036115710579F090
:10085000FB0101900020E9F73197AF01461B570BD0
:10086000DC01ED91FC910280F381E02D099480E0A0
:1008700090E008954F925F926F927F92EF92FF9275
:100880000F931F93CF93DF93CDB7DEB7A1970FB62A
:10089000F894DEBF0FBECDBF7C01FA01CB0119A2D7
:1008A000223008F42AE08E010F5D1F4F422E512C9A
:1008B000612C712CBF01A30192010E947008F90103
:1008C000CA01015011096A3014F4605D01C0695C0D
:1008D000D8016C93232B242B252B61F7B801C7017A
:1008E0000E942504A1960FB6F894DEBF0FBECDBFBF
:1008F000DF91CF911F910F91FF90EF907F906F90BC
:100900005F904F9008954F925F926F927F928F9277
:100910009F92AF92BF92CF92DF92EF92FF92CF93CE
:10092000DF93EC016A017B01B22E9A01AB01C70192
:10093000B6010E94CF0A882319F068E171E027C050
:1009400026013701E89477F82FEF3FEF4FE75FE795
:10095000C301B2010E94CF0A81110DC02FEF3FEFFA
:100960004FE75FE7C301B2010E94050918161CF4A6
:100970006CE171E00CC02FEF3FEF4FE75FE4C70180
:10098000B6010E945D0A18169CF460E271E0CE0187
:10099000DF91CF91FF90EF90DF90CF90BF90AF901D
:1009A0009F908F907F906F905F904F900C94250454
:1009B0002FEF3FEF4FE75FECC701B6010E9405093B
:1009C00087FDE3CF20E030E0A901C701B6010E9416
:1009D000050987FF0EC0E881F9810190F081E02DC3
:1009E0006DE2CE0109954C01F7FAF094F7F8F09416
:1009F00002C0812C912CA12C60E070E080E09FE38C
:100A0000AB1441F020E030E040E251E40E940A09DA
:100A1000A394F6CF9B01AC01C701B6010E949908CF
:100A20002B013C010E947C096B017C010E94AB09F7
:100A30009B01AC01C301B2010E9498082B013C014B
:100A40002AE0B701A601CE010E943A047C01E80C1D
:100A5000F91CBB2039F064E271E0CE010E9425044C
:100A6000E80EF91EDB2CDD2029F120E030E040E229
:100A700051E4C301B2010E94620A2B013C010E94B1
:100A80007C094B01A12CB12C2AE0B501A401CE01B7
:100A90000E943A04E80EF91EC501B4010E94AB0998
:100AA0009B01AC01C301B2010E9498082B013C01DB
:100AB000DA94D9CFC701DF91CF91FF90EF90DF900B
:100AC000CF90BF90AF909F908F907F906F905F90EE
:100AD0004F9008950C9483040C9425041F920F9258
:100AE0000FB60F9211242F933F934F935F936F9301
:100AF0007F938F939F93AF93BF93EF93FF9382E581
:100B000091E00E94EF00FF91EF91BF91AF919F9113
:100B10008F917F916F915F914F913F912F910F90A6
:100B20000FBE0F901F9018951F920F920FB60F9245
:100B300011242F938F939F93EF93FF93E091620182
:100B4000F09163018081E0916801F091690182FD7B
:100B500012C0908180916B018F5F8F7320916C0127
:100B6000821751F0E0916B01F0E0EE5AFE4F958F45
:100B700080936B0101C08081FF91EF919F918F91D4
:100B80002F910F900FBE0F901F9018951F920F92EC
:100B90000FB60F9211242F933F938F939F93AF9390
:100BA000BF938091410190914201A0914301B09186
:100BB00044013091400126E0230F2D3720F40296A6
:100BC000A11DB11D05C029E8230F0396A11DB11D6C
:100BD000209340018093410190934201A0934301EF
:100BE000B09344018091450190914601A091470145
:100BF000B09148010196A11DB11D809345019093CC
:100C00004601A0934701B0934801BF91AF919F91D6
:100C10008F913F912F910F900FBE0F901F901895BD
:100C2000E2E5F1E01382128288EE93E0A0E0B0E00A
:100C300084839583A683B78384E091E09183808346
:100C400085EC90E09587848784EC90E09787868791
:100C500080EC90E0918B808B81EC90E0938B828B89
:100C600082EC90E0958B848B86EC90E0978B868B62
:100C7000118E128E138E148EEFEEF1E0138212821B
:100C800084E191E09183808382E084838FEF858388
:100C900083E0868384E0878385E0808786E08187A0
:100CA00087E082871386148615861686178661E08C
:100CB000CF010C946D03CF93DF9300D000D0CDB75C
:100CC000DEB7789484B5826084BD84B5816084BDCC
:100CD00085B5826085BD85B5816085BD80916E00DA
:100CE000816080936E00109281008091810082600B
:100CF0008093810080918100816080938100809148
:100D000080008160809380008091B1008460809336
:100D1000B1008091B00081608093B00080917A0032
:100D2000846080937A0080917A00826080937A0058
:100D300080917A008E7F80937A0080917A0080681B
:100D400080937A001092C100E0916201F0916301FA
:100D500082E08083E0915E01F0915F011082E0917A
:100D60006001F091610187E6808310926A01E09151
:100D70006601F091670186E08083E0916401F09163
:100D80006501808180618083E0916401F09165015B
:100D9000808188608083E0916401F09165018081A9
:100DA00080688083E0916401F091650180818F7D8E
:100DB000808362E08FEE91E00E946D0360E088E046
:100DC0000E94000261E08DE00E9400020E94AC01DE
:100DD000892B91F462E370E080E090E00E94610270
:100DE0000E94AC01892B09F078C19091510181E0FA
:100DF00089278093510171C180E00E949B027C0190
:100E000081E00E949B02BC01990F880B990B0E9404
:100E1000AD092AE038E240E25DE30E94620A2B015C
:100E20003C01B701FF0C880B990B0E94AD092FE024
:100E30003CE340E75CE30E94620A4B015C019B01DA
:100E4000AC01C301B2010E94620A69837A838B8379
:100E50009C8320E030E043E554E4C501B4010E94E6
:100E60000A099B01AC0160914D0170914E01809186
:100E70004F01909150010E94990860934D01709329
:100E80004E0180934F019093500120E030E043E504
:100E900054E469817A818B819C810E940A099B01BB
:100EA000AC016091490170914A0180914B01909190
:100EB0004C010E9499086093490170934A01809304
:100EC0004B0190934C0160E080E00E94100422E00E
:100ED00030E0B301A2018FEE91E00E946A0566E264
:100EE00071E08FEE91E00E946C0560E088E00E9466
:100EF000100422E030E049815A816B817C818FEEC1
:100F000091E00E946A0569E271E08FEE91E00E9433
:100F10006C0561E080E00E94100422E030E0B50141
:100F2000A4018FEE91E00E946A056DE271E08FEE00
:100F300091E00E946C0561E088E00E9410048091BD
:100F400051018823B9F1C0904D01D0904E01E0903D
:100F50004F01F090500120E030E040E251E4C70141
:100F6000B6010E94050987FF03C023E030E019C0E5
:100F700020E030E048EC52E4C701B6010E940509C8
:100F800087FF03C022E030E00CC020E030E04AE7F9
:100F900054E4C701B6010E94050987FF08C021E09B
:100FA00030E0B701A6018FEE91E00E946A0560E390
:100FB00071E036C0C0904901D0904A01E0904B01E9
:100FC000F0904C0120E030E040E251E4C701B6016E
:100FD0000E94050987FF03C023E030E019C020E02C
:100FE00030E048EC52E4C701B6010E94050987FFD2
:100FF00003C022E030E00CC020E030E04AE754E4D7
:10100000C701B6010E94050987FF08C021E030E052
:10101000B701A6018FEE91E00E946A0566E371E0D8
:101020008FEE91E00E946C0527E030E0B301A20151
:1010300082E591E00E946A056BE271E082E591E051
:101040000E946C0527E030E0B501A40182E591E043
:101050000E946A056BE271E082E591E00E946C05F6
:1010600027E030E049815A816B817C8182E591E003
:101070000E946A056BE271E082E591E00E946C05D6
:1010800040914D0150914E0160914F01709150017E
:1010900027E030E082E591E00E946A056BE271E0B2
:1010A00082E591E00E946C054091490150914A010E
:1010B00060914B0170914C0127E082E591E00E9424
:1010C00083046CE371E082E591E00E94250464E60C
:1010D00070E080E090E00E9461020E94790176CE8B
:1010E000A1E21A2EAA1BBB1BFD010DC0AA1FBB1F2C
:1010F000EE1FFF1FA217B307E407F50720F0A21B9E
:10110000B30BE40BF50B661F771F881F991F1A940A
:1011100069F760957095809590959B01AC01BD0134
:10112000CF010895EE0FFF1F0590F491E02D099473
:101130005058BB27AA270E94B0080C94230A0E948B
:10114000150A38F00E941C0A20F039F49F3F19F468
:1011500026F40C94120A0EF4E095E7FB0C940C0AAA
:10116000E92F0E94340A58F3BA17620773078407FD
:10117000950720F079F4A6F50C94560A0EF4E09544
:101180000B2EBA2FA02D0B01B90190010C01CA0141
:10119000A0011124FF27591B99F0593F50F4503EEC
:1011A00068F11A16F040A22F232F342F4427585FDE
:1011B000F3CF469537952795A795F0405395C9F7F6
:1011C0007EF41F16BA0B620B730B840BBAF09150AE
:1011D000A1F0FF0FBB1F661F771F881FC2F70EC04D
:1011E000BA0F621F731F841F48F487957795679520
:1011F000B795F7959E3F08F0B0CF9395880F08F00C
:101200009927EE0F9795879508950E94E80908F4AD
:1012100081E008950E941E090C94230A0E941C0A72
:1012200058F00E94150A40F029F45F3F29F00C9411
:101230000C0A51110C94570A0C94120A0E94340A99
:1012400068F39923B1F3552391F3951B550BBB27F5
:10125000AA2762177307840738F09F5F5F4F220F3A
:10126000331F441FAA1FA9F335D00E2E3AF0E0E831
:1012700032D091505040E695001CCAF72BD0FE2F7B
:1012800029D0660F771F881FBB1F2617370748070F
:10129000AB07B0E809F0BB0B802DBF01FF279358C7
:1012A0005F4F3AF09E3F510578F00C940C0A0C9475
:1012B000570A5F3FE4F3983ED4F386957795679598
:1012C000B795F7959F5FC9F7880F911D96958795FC
:1012D00097F90895E1E0660F771F881FBB1F62171B
:1012E00073078407BA0720F0621B730B840BBA0BD9
:1012F000EE1F88F7E09508950E943C0A88F09F57FA
:1013000098F0B92F9927B751B0F0E1F0660F771F29
:10131000881F991F1AF0BA95C9F714C0B13091F01F
:101320000E94560AB1E008950C94560A672F782F50
:101330008827B85F39F0B93FCCF3869577956795E4
:10134000B395D9F73EF490958095709561957F4F50
:101350008F4F9F4F0895E89409C097FB3EF49095F6
:101360008095709561957F4F8F4F9F4F9923A9F07E
:10137000F92F96E9BB279395F6958795779567950D
:10138000B795F111F8CFFAF4BB0F11F460FF1BC051
:101390006F5F7F4F8F4F9F4F16C0882311F096E9E4
:1013A00011C0772321F09EE8872F762F05C0662392
:1013B00071F096E8862F70E060E02AF09A95660F4B
:1013C000771F881FDAF7880F9695879597F9089504
:1013D000990F0008550FAA0BE0E8FEEF1616170646
:1013E000E807F907C0F012161306E407F50798F0AE
:1013F000621B730B840B950B39F40A2661F0232BC7
:10140000242B252B21F408950A2609F4A140A69542
:101410008FEF811D811D089597F99F6780E870E027
:1014200060E008959FEF80EC089500240A9416165A
:10143000170618060906089500240A9412161306C2
:10144000140605060895092E0394000C11F4882350
:1014500052F0BB0F40F4BF2B11F460FF04C06F5F6C
:101460007F4F8F4F9F4F089557FD9058440F551F42
:1014700059F05F3F71F04795880F97FB991F61F016
:101480009F3F79F087950895121613061406551F8D
:10149000F2CF4695F1DF08C0161617061806991FF9
:1014A000F1CF86957105610508940895E894BB27EE
:1014B00066277727CB0197F908950E94E80908F479
:1014C0008FEF08950E94750A0C94230A0E94150A52
:1014D00038F00E941C0A20F0952311F00C940C0A9D
:1014E0000C94120A11240C94570A0E94340A70F3C7
:1014F000959FC1F3950F50E0551F629FF001729FB9
:10150000BB27F00DB11D639FAA27F00DB11DAA1FC7
:10151000649F6627B00DA11D661F829F2227B00D14
:10152000A11D621F739FB00DA11D621F839FA00D9F
:10153000611D221F749F3327A00D611D231F849FEF
:10154000600D211D822F762F6A2F11249F57504046
:101550009AF0F1F088234AF0EE0FFF1FBB1F661FC1
:10156000771F881F91505040A9F79E3F510580F08A
:101570000C940C0A0C94570A5F3FE4F3983ED4F3A2
:10158000869577956795B795F795E7959F5FC1F72E
:10159000FE2B880F911D9695879597F908950E94C7
:1015A000E809880B990B089581E090E0F8940C9479
:0615B000D90AF894FFCFF8
:1015B6000000000010018C00D900B700CB005701D5
:1015C6000000000064038C006E616E00696E6600A8
:1015D6006F7666002E00562000572020004120001E
:1015E600412F68202000572F682020000D0A000098
:107800000C94343C0C94513C0C94513C0C94513CE1
:107810000C94513C0C94513C0C94513C0C94513CB4
:107820000C94513C0C94513C0C94513C0C94513CA4
:107830000C94513C0C94513C0C94513C0C94513C94
:107840000C94513C0C94513C0C94513C0C94513C84
:107850000C94513C0C94513C0C94513C0C94513C74
:107860000C94513C0C94513C11241FBECFEFD8E036
:10787000DEBFCDBF11E0A0E0B1E0EAE8FFE702C063
:1078800005900D92A230B107D9F712E0A2E0B1E065
:1078900001C01D92AD30B107E1F70E942D3D0C945F
:1078A000C33F0C94003C982F95959595959595958B
:1078B000905D8F708A307CF0282F295A8091C0000B
:1078C00085FFFCCF9093C6008091C00085FFFCCF60
:1078D0002093C6000895282F205DF0CF982F809127
:1078E000C00085FFFCCF9093C6000895EF92FF92F1
:1078F0000F931F93EE24FF2487018091C00087FD22
:1079000017C00894E11CF11C011D111D81E2E8164D
:1079100081EAF80687E0080780E0180770F3E09135
:107920000401F091050109958091C00087FFE9CF1E
:107930008091C6001F910F91FF90EF9008950E94D3
:10794000763C982F8091C00085FFFCCF9093C600B5
:1079500091362CF490330CF09053892F089597555D
:10796000892F08951F930E949F3C182F0E949F3CCF
:107970001295107F810F1F9108951F93182F882350
:1079800021F00E94763C1150E1F71F9108951F935A
:10799000182F0E94763C803249F0809103018F5F5E
:1079A000809303018530C1F01F9108958091C0003C
:1079B00085FFFCCF84E18093C6008091C00085FFE5
:1079C000FCCF1093C6008091C00085FFFCCF80E102
:1079D0008093C6001F910895E0910401F091050184
:1079E00009951F9108950E94763C803241F0809164
:1079F00003018F5F80930301853081F008958091AA
:107A0000C00085FFFCCF84E18093C6008091C00058
:107A100085FFFCCF80E18093C6000895E0910401CA
:107A2000F09105010995089548EC50E08823A1F0F4
:107A30002D9A28EE33E0FA013197F1F721503040CA
:107A4000D1F72D9828EE33E0FA013197F1F7215064
:107A50003040D1F7815061F708953F924F925F9285
:107A60006F927F928F929F92AF92BF92CF92DF924E
:107A7000EF92FF920F931F93CF93DF93000082E06A
:107A80008093C00080E18093C4001092C50088E11B
:107A90008093C10086E08093C2005098589A259A3E
:107AA00081E00E94143D24E1F22E9EE1E92E85E959
:107AB000D82E0FE0C02E10E1B12EAA24A394B1E479
:107AC0009B2EA6E58A2EF2E57F2EE0E26E2E79E46B
:107AD000572E63E5462E50E5352E0E94763C8033C6
:107AE000B1F18133B9F1803409F46FC0813409F404
:107AF00076C0823409F485C0853409F488C08035A5
:107B000031F1823521F1813511F1853509F485C0D6
:107B1000863509F48DC0843609F496C0843709F49B
:107B200003C1853709F472C1863709F466C08091B4
:107B300003018F5F80930301853079F6E0910401A2
:107B4000F091050109950E94763C803351F60E9420
:107B5000F33CC3CF0E94763C803249F78091C0004D
:107B600085FFFCCFF092C6008091C00085FFFCCF5E
:107B70009092C6008091C00085FFFCCF8092C60025
:107B80008091C00085FFFCCF7092C6008091C0003C
:107B900085FFFCCF6092C6008091C00085FFFCCFBE
:107BA0005092C6008091C00085FFFCCF4092C60075
:107BB0008091C00085FFFCCF3092C6008091C0004C
:107BC00085FFFCCFB092C60088CF0E94763C8638F5
:107BD00008F4BDCF0E94763C0E94F33C7ECF0E9409
:107BE000763C803809F49CC0813809F40BC1823896
:107BF00009F430C1883909F48FC080E00E94C73C85
:107C00006CCF84E10E94BD3C0E94F33C66CF85E0CE
:107C10000E94BD3C0E94F33C60CF0E94763C809362
:107C200006010E94763C809307010E94F33C55CFE9
:107C30000E94763C803309F411C183E00E94BD3C70
:107C400080E00E94C73C49CF0E94763C80930902A5
:107C50000E94763C8093080280910C028E7F809374
:107C60000C020E94763C853409F409C18091080217
:107C700090910902892B89F000E010E00E94763C87
:107C8000F801E85FFE4F80830F5F1F4F809108026D
:107C9000909109020817190788F30E94763C8032F8
:107CA00009F045CF80910C0280FFF5C0609106017C
:107CB00070910701660F771F7093070160930601AB
:107CC000A0910802B09109021097C9F0E8E0F1E034
:107CD0009B01AD014E0F5F1FF999FECF32BD21BD53
:107CE000819180BDFA9AF99A2F5F3F4FE417F5070B
:107CF00099F76A0F7B1F70930701609306018091CB
:107D0000C00085FFFCCFF092C6008091C00085FFC7
:107D1000FCCFB092C600E1CE83E00E94C73CDDCE2E
:107D200082E00E94C73CD9CE0E94763C8093090233
:107D30000E94763C80930802809106019091070191
:107D4000880F991F90930701809306010E94763C4B
:107D5000853409F49AC080910C028E7F80930C02C6
:107D60000E94763C803209F0B8CE8091C00085FF39
:107D7000FCCFF092C600A0910802B09109021097C2
:107D8000C1F180910C02082F0170182F1695117007
:107D9000E0910601F0910701AF014F5F5F4FBA011B
:107DA00020E030E00023B1F4112339F49491809164
:107DB000C00085FFFCCF9093C6002F5F3F4FCB01E3
:107DC0000196FA012A173B0780F4BC014F5F5F4F11
:107DD000002351F3F999FECFF2BDE1BDF89A90B5B9
:107DE0008091C00085FFFCCFE6CF709307016093C0
:107DF00006018091C00085FDE5CE8091C00085FF21
:107E0000F8CFE0CE81E00E94C73C67CE0E94763C6E
:107E1000803209F08CCE8091C00085FFFCCFF092BB
:107E2000C6008091C00085FFFCCFE092C600809123
:107E3000C00085FFFCCFD092C6008091C00085FFB6
:107E4000FCCFC092C6008091C00085FFFCCFB092ED
:107E5000C60043CE80E10E94C73C3FCE0E94763CE4
:107E60000E94763C182F0E94763C112309F483C0AF
:107E7000113009F484C08FE00E94C73C2ECE80915F
:107E80000C02816080930C02F1CE80910C02816023
:107E900080930C0265CF809107018823880F880B9F
:107EA0008A2180930B028091060190910701880F2F
:107EB000991F90930701809306018091080280FF2B
:107EC00009C08091080290910902019690930902DD
:107ED00080930802F894F999FECF1127E0910601EA
:107EE000F0910701C8E0D1E0809108029091090269
:107EF000103091F40091570001700130D9F303E084
:107F000000935700E8950091570001700130D9F3B4
:107F100001E100935700E8950990199000915700EE
:107F200001700130D9F301E000935700E8951395F3
:107F3000103498F011270091570001700130D9F3E7
:107F400005E000935700E89500915700017001305B
:107F5000D9F301E100935700E8953296029709F0B2
:107F6000C7CF103011F00296E5CF11248091C000E8
:107F700085FFC5CEC8CE8EE10E94C73CAECD85E957
:0A7F80000E94C73CAACDF894FFCF81
:027F8A00800075
:040000030000780081
:00000001FF
